:1000000013C100009FC3000072C3000045C300007D
:1000100018C30000EBC20000BEC2000091C2000085
:1000200064C2000020C100001EC100001CC100000D
:100030001AC1000018C1000016C1000014C1000060
:1000400012C1000010C100000EC100000CC1000070
:100050000AC1000008C1000006C10000FCC1000088
:1000600002C1000000C10000FEC00000FCC0000092
:10007000FAC00000F8C00000F6C00000F4C00000A4
:10008000F2C00000F0C00000EEC00000ECC00000B4
:10009000EAC00000E8C00000E6C00000E4C00000C4
:1000A000E2C00000E0C00000DEC00000DCC00000D4
:1000B000DAC00000D8C00000D6C00000D4C00000E4
:1000C000D2C00000D0C00000CEC00000CCC00000F4
:1000D000CAC00000C8C00000C6C00000C4C0000004
:1000E000C2C000005C015F014E015201580196013F
:1000F000630167016D01710175017B017F0183015E
:10010000960189018D019101000021002400270042
:100110002A002D0030003300010100000401070116
:100120000A0100002200250028002B002E003100CB
:10013000340002010000050108010B01000020004D
:100140002300260029002C002F00320000010000AF
:10015000030106010901050505050705080808084A
:10016000020202020A0A080804040404010101014F
:10017000010101010303030303030303040707074A
:100180000C0C0C0C0C0C0C0C0202020206060606EF
:10019000060606060B0B0B0B0B0B0B0B01021020BC
:1001A00020080810204010204080020102010804AD
:1001B0000201010204081020408080402010080441
:1001C000020180040201804020100804020108049A
:1001D00002010102040810204080010204081020DE
:1001E000408000000A0B02090C0D0E0807030401F1
:1001F00000000000000000000000000000000000FF
:1002000000000000000000000000000000001211CB
:1002100010000000000000000000000000000000CE
:10022000000000000000000011241FBECFEFD1E24B
:10023000DEBFCDBF00E00CBF12E0A0E0B2E0EEE216
:10024000FCE000E00BBF02C007900D92A031B107A7
:10025000D9F722E0A0E1B2E001C01D92A633B207B7
:10026000E1F79BD2E2C4CCCE81E080932B020895CB
:1002700010922B0281E080931A02089581E080930E
:100280002C02089590E0FC013197E231F10508F06D
:100290004DC08827EE58FF4F8F4FBFC4809180001C
:1002A0008F7703C0809180008F7D809380000895B8
:1002B00080918000877FF9CF84B58F7702C084B5A5
:1002C0008F7D84BD08958091B0008F7703C08091A9
:1002D000B0008F7D8093B0000895809190008F775B
:1002E00007C0809190008F7D03C080919000877F30
:1002F0008093900008958091A0008F7707C080912F
:10030000A0008F7D03C08091A000877F8093A00014
:100310000895809120018F7707C0809120018F7D03
:1003200003C080912001877F809320010895CF939F
:10033000DF93282F30E0F901EE51FE4F8491F9014F
:10034000E456FE4FD491F901EA5AFE4FC491CC23F2
:1003500089F0811197DFEC2FF0E0EE0FFF1FE45CD6
:10036000FE4FA591B491EC91ED2381E090E021F452
:1003700080E002C080E090E0DF91CF9108951F936C
:10038000CF93DF93282F30E0F901EE51FE4F849197
:10039000F901E456FE4FD491F901EA5AFE4FC49197
:1003A000CC23C1F0162F81116DDFEC2FF0E0EE0FA2
:1003B000FF1FEE5DFE4FA591B4918FB7F894111118
:1003C00005C09C91ED2FE095E92302C0EC91ED2B47
:1003D000EC938FBFDF91CF911F910895CF93DF935F
:1003E00090E0FC01E456FE4F2491FC01EA5AFE4FD6
:1003F0008491882361F190E0880F991FFC01E85FE8
:10040000FE4FC591D491FC01EE5DFE4FA591B491D4
:10041000611109C09FB7F894888120958223888351
:10042000EC912E230BC0623061F49FB7F8943881B1
:10043000822F809583238883EC912E2B2C939FBF52
:1004400006C08FB7F894E8812E2B28838FBFDF91E9
:10045000CF91089508951F920F920FB60F92112415
:100460002F933F938F939F93AF93BF9380913202CB
:1004700090913302A0913402B09135023091310253
:1004800023E0230F2D3720F40196A11DB11D05C0D7
:1004900026E8230F0296A11DB11D209331028093FF
:1004A000320290933302A0933402B09335028091CC
:1004B0002D0290912E02A0912F02B0913002019650
:1004C000A11DB11D80932D0290932E02A0932F02A7
:1004D000B0933002BF91AF919F918F913F912F9137
:1004E0000F900FBE0F901F9018951F920F920FB68E
:1004F0000F9211240BB60F922F933F934F935F935C
:100500006F937F938F939F93AF93BF93EF93FF93DB
:10051000E0910E02F0910F021995FF91EF91BF91BA
:10052000AF919F918F917F916F915F914F913F918B
:100530002F910F900BBE0F900FBE0F901F9018952C
:100540001F920F920FB60F9211240BB60F922F939A
:100550003F934F935F936F937F938F939F93AF934B
:10056000BF93EF93FF93E0910C02F0910D02199568
:10057000FF91EF91BF91AF919F918F917F916F917B
:100580005F914F913F912F910F900BBE0F900FBE37
:100590000F901F9018951F920F920FB60F92112473
:1005A0000BB60F922F933F934F935F936F937F936D
:1005B0008F939F93AF93BF93EF93FF93E0910202CA
:1005C000F09103021995FF91EF91BF91AF919F9127
:1005D0008F917F916F915F914F913F912F910F90EC
:1005E0000BBE0F900FBE0F901F9018951F920F9289
:1005F0000FB60F9211240BB60F922F933F934F9388
:100600005F936F937F938F939F93AF93BF93EF937A
:10061000FF93E0910002F09101021995FF91EF9193
:10062000BF91AF919F918F917F916F915F914F910A
:100630003F912F910F900BBE0F900FBE0F901F9008
:1006400018951F920F920FB60F9211240BB60F92AE
:100650002F933F934F935F936F937F938F939F93CA
:10066000AF93BF93EF93FF93E0910A02F0910B02D7
:100670001995FF91EF91BF91AF919F918F917F91CC
:100680006F915F914F913F912F910F900BBE0F9003
:100690000FBE0F901F9018951F920F920FB60F92DA
:1006A00011240BB60F922F933F934F935F936F9349
:1006B0007F938F939F93AF93BF93EF93FF93E091BB
:1006C0000802F09109021995FF91EF91BF91AF9146
:1006D0009F918F917F916F915F914F913F912F915A
:1006E0000F900BBE0F900FBE0F901F9018951F928A
:1006F0000F920FB60F9211240BB60F922F933F93C8
:100700004F935F936F937F938F939F93AF93BF9319
:10071000EF93FF93E0910602F09107021995FF9184
:10072000EF91BF91AF919F918F917F916F915F9169
:100730004F913F912F910F900BBE0F900FBE0F90D6
:100740001F9018951F920F920FB60F9211240BB69F
:100750000F922F933F934F935F936F937F938F935A
:100760009F93AF93BF93EF93FF93E0910402F091B7
:1007700005021995FF91EF91BF91AF919F918F91D4
:100780007F916F915F914F913F912F910F900BBE91
:100790000F900FBE0F901F901895789484B58260CB
:1007A00084BD84B5816084BD85B5826085BD85B515
:1007B000816085BD80916E00816080936E00109293
:1007C000810080918100826080938100809181000E
:1007D000816080938100809180008160809380009F
:1007E0008091B10084608093B1008091B0008160FD
:1007F0008093B000809191008260809391008091FD
:10080000910081608093910080919000816080933D
:1008100090008091A10082608093A1008091A1004E
:1008200081608093A1008091A00081608093A000EE
:10083000809121018260809321018091210181605A
:10084000809321018091200181608093200180911B
:100850007A00846080937A0080917A00826080932D
:100860007A0080917A00816080937A0080917A008A
:10087000806880937A001092C10060E089E0AEDD6C
:1008800060E087E0ABDD60E08AE0A8DD61E08CE05D
:10089000A5DD61E08BE0A2DD61E086E09FDD61E047
:1008A00084E09CDD61E085E099DD84E391E0909354
:1008B00001028093000280916A00836080936A0045
:1008C000EC9A88E391E09093030280930202809176
:1008D0006A00837F886080936A00ED9A8EE391E0DE
:1008E00090930B0280930A0280916900806C809340
:1008F0006900EB9A8AE01BDD892B91F08AE090E099
:100900009093200280931F0284E190E0909319025B
:100910008093180261E084E032DD60E085E011C080
:1009200089E190E09093200280931F0282E390E09F
:10093000909319028093180261E085E020DD60E069
:1009400084E01DDD61E086E01ADD60E0C62E60E037
:10095000D62E80912C02882329F080912B028130A1
:1009600009F441C180912B028090270290902802C7
:10097000A0902902B0902A028130A9F4809123022C
:1009800090912402A0912502B0912602B7FE02C0E8
:10099000816001C08E7F8093230290932402A093F4
:1009A0002502B0932602D501C40156E1B695A7955C
:1009B000979587955A95D1F7282F2170222E00916F
:1009C000210210912202C0911F02D0912002C01773
:1009D000D10794F080912B02813029F4222319F061
:1009E00061E08CE0CCDC80912B02813029F4211075
:1009F00003C060E08CE0C3DC0C171D0729F4809174
:100A00002B02813009F403C180911E02882319F062
:100A100060E08CE0B4DC40902302509024026090AF
:100A2000250270902602D301C2014CE1B695A7952C
:100A3000979587954A95D1F7282F2170322EE0900F
:100A40001C02F0901D02CE15DF0594F080912B0260
:100A5000813029F4222319F061E08BE090DC809151
:100A60002B02813029F4311003C060E08BE087DC79
:100A7000EC16FD0629F480912B02813009F4CAC0DE
:100A800080911B02882319F060E08BE078DC809174
:100A90001A02813009F0A0C0222031F00F5F1F4FF1
:100AA0001093220200932102009121021091220250
:100AB000C017D10754F0E894A6F8809227029092CC
:100AC0002802A0922902B0922A0289E030DC0C1799
:100AD0001D0741F4892B31F410921E02109222025C
:100AE0001092210287E023DC209118023091190234
:100AF00040912102509122024217530741F4892B61
:100B000031F410921E02D0932202C09321028091F0
:100B10002102909122028217930731F410921E0253
:100B20001092220210922102332039F08FEFE81A3E
:100B3000F80AF0921D02E0921C0280911C02909132
:100B40001D028C179D0731F410921B0210921D029A
:100B500010921C028091270290912802A0912902F4
:100B6000B0912A02880F991FAA1FBB1F80931402FD
:100B700090931502A0931602B0931702440C551CD3
:100B8000661C771C40921002509211026092120271
:100B9000709213028091140290911502A091160296
:100BA000B09117028093270290932802A093290204
:100BB000B0932A028091100290911102A09112022A
:100BC000B09113028093230290932402A0932502F4
:100BD000B093260210921A02C114D10409F4B9CEBE
:100BE0000E940000B6CE8091270290912802A09129
:100BF0002902B0912A0281608093270290932802F3
:100C0000A0932902B0932A0210922C02ABCE8093BB
:100C10001E02FACE80931B0233CFEE0FFF1F881FF8
:0E0C20008BBF0790F691E02D1994F894FFCF4A
:100C2E002A022A022A022A022A022A022A022A0256
:00000001FF
